:020000040800F2
:10000000D0070020E1010008955F000843170008B1
:10001000915F000899090008957800080000000029
:10002000000000000000000000000000B9630008AC
:100030006D0C0008000000001D630008CD6400087E
:10004000FB010008FB010008FB010008FB010008A0
:10005000FB010008FB010008FB010008FB01000890
:10006000FB010008FB010008FB010008FB01000880
:10007000FB010008FB010008FB010008FB01000870
:10008000FB010008FB010008FB010008FB01000860
:10009000FB010008FB010008FB010008FB01000850
:1000A000FB010008FB010008FB010008FB01000840
:1000B0003165000871650008FB010008FB010008BC
:1000C000FB010008FB010008FB010008FB01000820
:1000D000FB0100087977000801780008FB0100089F
:1000E000FB010008FB010008FB010008FB01000800
:1000F000FB010008FB010008FB010008FB010008F0
:10010000FB010008FB010008FB010008FB010008DF
:10011000FB010008FB010008FB010008FB010008CF
:10012000FB010008FB010008FB010008FB010008BF
:1001300000F002F800F045F80AA090E8000C8244B4
:100140008344AAF10107DA4501D100F03AF8AFF291
:10015000090EBAE80F0013F0010F18BFFB1A43F0A5
:1001600001031847D0B20000F0B20000103A24BFDB
:1001700078C878C1FAD8520724BF30C830C144BF0C
:1001800004680C607047000000230024002500264E
:10019000103A28BF78C1FBD8520728BF30C148BFEA
:1001A0000B607047642900F0A780782900F0E08098
:1001B000732900F0C381002070471FB51FBD10B523
:1001C00010BD00F0F5F91146FFF7F7FF07F0CAFC84
:1001D00000F013FA03B4FFF7F2FF03BC07F05CFB77
:1001E0000948804709480047FEE7FEE7FEE7FEE7CB
:1001F000FEE7FEE7FEE7FEE7FEE7FEE70448054907
:10020000054A064B70470000D16400083101000820
:10021000D0010020D0070020D0030020D003002010
:10022000704700000FB4044910B503AA029800F00B
:1002300089F910BC5DF814FB680000202DE9F0413D
:100240000E460446002020622046E168884730B30D
:10025000252805D0D4E901219047206A401CF2E707
:10026000E168204600278847050018D0A5F1410025
:10027000192802D820354FF4006732462946204617
:100280002760FFF78FFF40B1012804D0F61D26F04C
:1002900007060836D8E7361DD6E72846DAE7206A8B
:1002A000BDE8F08170B50C460546012A05D02878D6
:1002B000800600D5EA69002302E0012305E05B1C0B
:1002C000934202D2E05C0028F9D1A869E618C01A6E
:1002D000A861286A184428622846AFF3008004E029
:1002E000D5E9012114F8010B9047B442F8D3284610
:1002F000AFF3008070BD00002DE9F04106460024F8
:1003000010687529314616A510D0AFF3008000287B
:1003100002DA404213A507E031688A0701D512A529
:1003200002E0490704D511A5012401E0AFF30080E4
:1003300000210A2206F1240709E0B0FBF2FCB0FB21
:10034000F2F302FB1C00303078541846491C002898
:10035000F3D123462A463046BDE8F04100F083B889
:10036000000000002D0000002B0000002000000015
:1003700070B504460D4621461068AFF30080218811
:10038000090502D50F4A7A4402E00E4A7A440E3239
:10039000002104F1240305E000F00F060009965D3A
:1003A0005E54491C0028F7D120780023000704D5AB
:1003B000702D02D009B1022311322046BDE87040F1
:1003C00000F051B804B000004FF0013C50F8042B8D
:1003D00051F8043B9A4221D1A2EB0C03934313EA58
:1003E000CC1317D150F8042B51F8043B9A4215D185
:1003F000A2EB0C03934313EACC130BD150F8042B5C
:1004000051F8043B9A4209D1A2EB0C03934313EA3F
:10041000CC13DBD04FF00000704700BFD01A01BAF8
:10042000B1FA81F101F0180122FA01F0CB40C1F1DB
:100430002001DBB2C0B2C01A2CFA01F3D11A9143E9
:1004400011EAC311E6D17047704770477047704793
:1004500010B500F089F8006810BD10B5044600F032
:1004600083F8046010BD2DE9F0470D469946924689
:10047000044600F124080168880604D5E06921F0EB
:100480001001216000E00120A84201DD471B00E0CF
:100490000027A1697A1902EB0900081AA0612078E7
:1004A000C00602D42046AFF30080002608E0D4E95D
:1004B00001211AF806009047206A401C761C206231
:1004C0004E45F4DB2078C0060AD52046AFF3008005
:1004D00006E0D4E9012130209047206A401C2062C8
:1004E000381EA7F10107F4DC07E0D4E9012118F870
:1004F00005009047206A401C2062281EA5F10105D6
:10050000F3DC2046AFF300802078000602D50220FD
:10051000BDE8F0870120FBE710B5436913B1AFF3E5
:10052000008001E0FFF7BEFE012010BD127800F14F
:1005300024010A7000224A700122EDE711684FF091
:10054000FF32E9E7074B70B50D467B4400F015F824
:100550000446284600F024F810B14FF0FF3070BD7B
:10056000204670BDB7740000004870476C01002041
:1005700001694A1C02610878704700B58FB0CDE967
:1005800001310021059105497944CDE90310114657
:100590006846FFF753FE0FB000BD0000E5FFFFFF08
:1005A000007B00F080007047004870476C0100201D
:1005B0007546FFF7F9FFAE4605006946534620F041
:1005C0000700854618B020B5FFF718FEBDE82040AB
:1005D0004FF000064FF000074FF000084FF0000BFF
:1005E00021F00701AC46ACE8C009ACE8C009ACE8B2
:1005F000C009ACE8C0098D46704710B50446AFF39A
:1006000000802046BDE81040FFF7E4BD21B18268BC
:1006100042F00102826003E0826822F001028260FF
:100620007047000010B504461248844208D10121E9
:10063000401505F0B1FE0021601505F0ADFE17E094
:100640000D48844208D10121001505F0A5FE0021C6
:10065000201505F0A1FE0BE00848844208D10121D5
:10066000C80305F099FE00214FF4004005F094FE08
:1006700010BD00000024014000280140003C014062
:10068000014600208A6802F004020AB1012000E05D
:10069000002070470146C86C80B2704702460020B7
:1006A00013680B400BB1012000E0002070470146A9
:1006B00000208A6802F008020AB1012000E0002050
:1006C0007047000030B502460020002350680F4CF0
:1006D00020400D790C6844EA05242043506090685E
:1006E0000B4C2040D1E902542C434D7944EA450497
:1006F00020439060D06A20F470000C7C641EE4B249
:10070000234340EA0350D06230BD0000FFFEF0FFFB
:10071000FDF7F1FFF0B504460D4600200021092D3C
:1007200011DDE068A5F10A0606EB4607072606FA82
:1007300007F18843A5F10A0606EB460603FA06F11F
:100740000843E0600CE0206905EB4507072606FA40
:1007500007F1884305EB450603FA06F108432061DB
:10076000072A0FDA606B561E06EB86071F2606FA6D
:1007700007F18843561E06EB860605FA06F1084384
:10078000606322E00D2A0FDA206BD61F06EB860786
:100790001F2606FA07F18843D61F06EB860605FAE0
:1007A00006F10843206310E0E06AA2F10D0606EBB3
:1007B00086071F2606FA07F18843A2F10D0606EB0D
:1007C000860605FA06F10843E062F0BD816841F053
:1007D00008018160704721B1826842F4A002826002
:1007E00003E0826822F4A00282607047816841F0D1
:1007F00004018160704710B500F0CEFF10BD70B5E8
:1008000006460C46154608E03046721C96B200F0CB
:1008100007F804F8010B681E85B2002DF4D170BDF5
:1008200070B50446002601F06BF82546E11704EB8D
:1008300011610912A02202EB4101C8B201F026F8B1
:1008400001F0AAF8E11704EB11610912A4EB0121F0
:10085000C8B201F01BF801F09FF801F051F8A12097
:1008600001F014F801F098F8002000F0D7FF0646D8
:1008700001F06CF8304670BD70B505460C46164662
:1008800006E02178284600F009F8681C85B2641C4F
:10089000301EA6F101018EB2F3D170BD70B50446D1
:1008A0000E4601F02DF82546E11704EB11610912FF
:1008B000A02202EB4101C8B200F0E8FF01F06CF8A1
:1008C000E11704EB11610912A4EB0121C8B200F099
:1008D000DDFF01F061F8304600F0D8FF01F05CF870
:1008E00001F034F80A2006F0FDFF70BD10B5044693
:1008F0000021204608F08EFC01D284F000442046FE
:1009000010BD000000B587B001214FF4017005F063
:1009100033FD00208DF81B000220ADF818000320E5
:100920008DF81A0006A91A4800F0CBFB4FF40040DE
:1009300005F0F6FC1748FFF775FE00208DF809005A
:1009400004904FF4602003900020019001208DF866
:10095000140000208DF8080001A90E48FFF7B2FE30
:1009600001210C48FFF752FE0A48FFF72FFF00BF96
:100970000848FFF79CFE0028FAD10648FFF736FF2B
:1009800000BF0448FFF77CFE0028FAD107B000BD85
:10099000000801400024014000BFFEE710B505201B
:1009A00006F0C6FF10BD000010B500200F4908601A
:1009B0000F48006820F0F0000D4908600846006804
:1009C00040F030000860FFF7E9FF00200949C1F856
:1009D000A401FFF7E3FF012004490860FFF7DEFFF1
:1009E00000200549C1F8840110BD00008481214226
:1009F000041C0140008023420080214208B50121EF
:100A0000882005F0B9FC0220ADF8000010208DF818
:100A1000030003208DF8020069460A4800F051FBEC
:100A20000221084800F02BFC4FF40070ADF80000E4
:100A30006946054800F045FB4FF40071024800F09C
:100A40001EFC08BD000C0140001C014010B5002038
:100A50000F4908600F48006820F0F0000D49086059
:100A60000846006840F030000860FFF797FF01205B
:100A70000949C1F8A401FFF791FF0120044908606A
:100A8000FFF78CFF00200549C1F8840110BD00006C
:100A900084812142041C01400080234200802142C5
:100AA00070B5054600241648006820F0F00014498F
:100AB00008600846006840F0800008601E2006F0CC
:100AC00037FF002611E000200E490860FFF766FF9F
:100AD00001200D49C1F884016006040E0B4800682E
:100AE00008B1601CC4B2701CC6B2082EEBDB15B98D
:100AF000FFF7ACFF01E0FFF757FF204670BD000095
:100B0000041C01408481214200802142248123422F
:100B100070B504461348006820F0F00011490860E1
:100B20000846006840F03000086000200E49086068
:100B3000FFF734FF002511E0E0090C49086060066A
:100B4000040E01200A49C1F88401FFF727FF0020A5
:100B500005490860FFF722FF681CC5B2082DEBDBD2
:100B600070BD0000041C014084812142A481234205
:100B70000080214210B50F48006820F0F0000D49B8
:100B800008600846006840F03000086001200A490B
:100B900008600A49C1F884011E2006F0C9FE002041
:100BA00005490860FFF7FAFE00200449C1F88401F6
:100BB00010BD0000041C0140A4812342008021429A
:100BC00010B50D48006820F0F0000B490860084699
:100BD000006840F0300008600120084908601E20CD
:100BE00006F0A6FE00200649C1F8A401FFF7D6FED4
:100BF00001200449086010BD041C01408481214289
:100C000000802342A481234210B5002413480068C9
:100C100020F0F000114908600846006840F08000AC
:100C2000086001200E4908600E49C1F88401FFF7F1
:100C3000B5FE09E0601CC4B2FA2C03DDFFF7C0FF6B
:100C4000012010BDFFF7AAFE054880380068002883
:100C5000F0D10549086000BFF3E70000041C014023
:100C6000A4812342008021428481214270470000F8
:100C700051B18200A2F1C042126842F00103820029
:100C8000A2F1C042136009E08200A2F1C0421268E2
:100C9000034B1A408300A3F1C0431A607047000061
:100CA000FEFF0F00D0E901121143C268114302692F
:100CB00011434269114382691143C2691143026AB7
:100CC0001143426A1143826A1143C26A1143026BA3
:100CD000114302689200A2F1C042116081680829A4
:100CE0000BD101688900A1F1C041096841F04002BF
:100CF00001688900A1F1C0410A60416B0968426B3B
:100D0000526841EA0211426B926841EA0221426B49
:100D1000928941EA0241426B128A41EA0251426BD6
:100D2000127D41EA0261426B926911430268521CD2
:100D30009200A2F1C0421160C16AB1F5804F1BD18F
:100D4000816B0968826B526841EA0211826B92687A
:100D500041EA0221826B128A41EA0251826B127DC2
:100D600041EA0261826B9269114302689200A2F12A
:100D7000C042C2F8041107E06FF0704201688900B8
:100D8000A1F1C041C1F80421704700001CB5012148
:100D9000802005F0F1FA4FF40060ADF8000010205B
:100DA0008DF8030003208DF8020069462D4800F0FD
:100DB00088F902212B4800F062FA4FF48060ADF808
:100DC000000048208DF803006946264800F079F9B4
:100DD0004FF48061234800F052FAFFF70FFE002025
:100DE00021490860142006F07DFD01201F49C1F84B
:100DF000AC01322006F076FD00208DF804000122BF
:100E000001A900F035F9012201A9A42000F030F970
:100E100016208DF80400012201A9802000F028F995
:100E20000C208DF80400012201A9882000F020F98F
:100E3000022201A9A12000F021F89DF80400302829
:100E40000ED19DF8050003280AD19DF805009DF8F4
:100E5000042000EB022106A0FFF7E4F900201CBDEE
:100E60000120FCE7001C0140AC81234200802342AA
:100E70004354502049443A25780D0A002DE9F041A9
:100E800006460F461546FFF775FE7020FFF740FE39
:100E9000FFF7BAFEF0B2FFF73BFEFFF7B5FEFFF734
:100EA00069FE7120FFF734FEFFF7AEFE00240BE071
:100EB000691EA14201D0012100E000210846FFF790
:100EC000EFFD3855601CC4B2AC42F1DBFFF778FE91
:100ED000BDE8F08171B581B000240026614800783A
:100EE000401C60490870084600780A2190FBF1F226
:100EF00001FB120018B15B4800780A2867DA01226A
:100F000001A90220FFF7BAFF9DF8040000F00F00CE
:100F100000287ED09DF8040000F00F00062878DA43
:100F20009DF8040000F00F01FF208840C5B2E8439F
:100F3000C0B240F0C0004C4981F8200000245AE0C3
:100F4000494890F820000121A1400840F0B34749EA
:100F500031F8140004226946FFF790FF424890F8E8
:100F6000300000F00100C0B19DF801009DF80010B4
:100F700001F00F0100EB01203B49163121F814006C
:100F80009DF803009DF8021001F00F0100EB012114
:100F900035480C3020F814101DE09DF801009DF834
:100FA000001001F00F0100EB0120C0F5F07081B2DC
:100FB0002D480C3020F814109DF803009DF8021005
:100FC00001F00F0100EB0121274801E011E020E0D2
:100FD000163020F814109DF8000000F0F000802872
:100FE00007D000212048163020F814100A3820F8C5
:100FF0001410601CC4B2052CA2DB01261A4880899B
:1010000020B91948C08A08B900200190002015496C
:1010100008709DF8040000F01F00D0B9124890F845
:10102000200000F0800040B10F4890F8200020F030
:1010300080000D4981F820000BE04FF6FF700A494F
:101040008881C882084690F8200000F0E00081F80E
:10105000200004480078F02802DD0A2001490870C9
:1010600030467CBD640000202C00002084B30008C2
:101070002DE9F04105460E4617464FF00008FFF7F0
:1010800079FD7020FFF744FDFFF7BEFDE8B2FFF7E2
:101090003FFDFFF7B9FD00240BE0305DFFF738FDA1
:1010A000FFF7B2FD8046B8F1000F00D003E0601CEE
:1010B000C4B2BC42F1DB00BFFFF782FD4046BDE891
:1010C000F0812DE9F0410246002500260020002392
:1010D0000024002791F803C00CF00F0591F803C01D
:1010E0000CF0100CBCF1000F03D091F802C04CEAD8
:1010F000050591F800C0BCF1000F31D01468002044
:101100002BE04FF0010C0CFA00F3B1F800C00CEA30
:1011100003069E4220D183004FF00F0C0CFA03F718
:10112000BC4305FA03FC4CEA040491F803C0BCF18B
:10113000280F06D14FF0010C0CFA00FCC2F814C0C5
:101140000AE091F803C0BCF1480F05D14FF0010C43
:101150000CFA00FCC2F810C0401C0828D1D314605F
:10116000B1F800C0BCF1FF0F34DD546800202EE060
:1011700000F1080C4FF0010808FA0CF3B1F800C0B8
:101180000CEA03069E4221D183004FF00F0C0CFAAB
:1011900003F7BC4305FA03FC4CEA040491F803C0CE
:1011A000BCF1280F05D100F1080C08FA0CF8C2F8C0
:1011B000148091F803C0BCF1480F07D100F1080C6E
:1011C0004FF0010808FA0CF8C2F81080401C0828FB
:1011D000CED35460BDE8F081F0B50A460023002468
:1011E0000021002500F00046B6F1004F02D11D4E4F
:1011F000F16901E01B4E7168C0F3034583B200F44E
:101200004016B6F5401F08D121F07061154E766882
:1012100026F07066134F7E6012E000F48016B6F57B
:10122000801F06D1032606FA05F4A14341F0706140
:1012300006E0460D360103FA06F6B14341F070614F
:1012400022B1460D360103FA06F6314300F000469E
:10125000B6F1004F02D1034EF16101E0014E716021
:10126000F0BD0000000001400246002093680B40E2
:101270000BB1012000E0002070474161704701611F
:10128000704700000EB50121802005F075F84FF47D
:101290000060ADF8000010208DF8030003208DF8E9
:1012A000020069463A48FFF70CFF02213848FFF771
:1012B000E6FF4FF48060ADF8000048208DF8030091
:1012C00069463348FFF7FDFE4FF480613048FFF771
:1012D000D6FFFFF793FB00202E4908600A2006F096
:1012E00001FB01202C49C1F8AC010A2006F0FAFAF2
:1012F0004FF48060ADF8000028208DF803006946A7
:101300002348FFF7DEFE4FF480612148FFF7B5FF69
:10131000642006F0E7FA042201A948F2401000F028
:1013200051F800208DF8080001A91CA0FEF77AFFF3
:101330001DA101A8FFF748F840BB02208DF804006A
:10134000012201A948F2400000F09CF9012201A904
:1013500048F2470000F036F89DF80400602807DAEC
:101360009DF8041012A0FEF75DFF012000F05CF96B
:101370000A2006F0B7FA00208DF80400012201A926
:1013800048F2400000F07EF900200EBD0120FCE78D
:10139000001C0140AC812342008023424354502072
:1013A00049443A25730D0A003931343700000000F2
:1013B00044656661756C74205665723A25640D0A41
:1013C000000000002DE9F04105460F461646FFF7E4
:1013D000D1FB2820FFF79CFBFFF716FC2812FFF734
:1013E00097FBFFF711FCE8B2FFF792FBFFF70CFC4D
:1013F000FFF7C0FB2920FFF78BFBFFF705FC00245C
:101400000BE0711EA14201D0012100E0002108463D
:10141000FFF746FB3855601CC4B2B442F1DBFFF75E
:10142000CFFBBDE8F081000071B583B00024002639
:1014300079480078401C78490870084600780A21ED
:1014400090FBF1F201FB120018B1734800780A28F2
:101450007EDA012203A948F24E10FFF7B3FF9DF890
:101460000C0000F0800068B19DF80C0000F00F0047
:10147000062807DA00200190012201A948F24E1047
:1014800000F000F99DF80C0000F00F0000285FD07C
:101490009DF80C0000F00F000628D9DA9DF80C002A
:1014A00000F00F01FF208840C0B201905B4890F827
:1014B00020509DF80400C043C0B240F0C00057491E
:1014C00081F82000084681898182C18AC183002475
:1014D00046E0524890F820000121A140084020B386
:1014E0004F4931F81400042202A9FFF76BFF4B4863
:1014F00090F8300000F00100C0B19DF808009DF8A0
:10150000091000EB012081B24448163020F8141075
:101510009DF80A009DF80B1000EB0120C0F5487003
:1015200081B23E480C3020F8141017E09DF80800F6
:101530009DF8091000EB012081B238480C3020F8EA
:1015400014109DF80A009DF80B1000EB012000E03C
:1015500036E081B23148163020F81410601CC4B255
:10156000052CB6DB01262D4880892E490988884242
:1015700005DC2A48C08A2B49498888421DDD9DF830
:101580000C0000F00F0001280ADD2448C08923491F
:1015900088810846008BC88200201F4908700FE030
:1015A0001E48808A1D4988810846C08BC8828020D9
:1015B0000390084680F8205002E000201649087089
:1015C0009DF80C0000F08F0080281AD1134890F885
:1015D000200000F0800040B1104890F8200020F07A
:1015E00080000E4981F820000BE04FF6FF700B4998
:1015F0008881C882084690F8200000F0E00081F859
:10160000200005480078F02802DD0A200249087011
:10161000304604B070BD0000620000202C000020A5
:1016200070B300083801002038B5054600240020BA
:101630008DF800008DF8015000BF09E09DF8000012
:101640000F49095D0844C0B28DF80000601CC4B2A7
:10165000B82CF3D39DF80000C043401CC0B28DF8F5
:101660000000B822064948F2470000F00BF80222B9
:10167000694648F2FF0000F005F8002038BD000080
:10168000B8B200082DE9F04104460E4617464FF067
:101690000008FFF76FFA2820FFF73AFAFFF7B4FACD
:1016A0002012FFF735FAFFF7AFFAE0B2FFF730FA92
:1016B000FFF7AAFA00250BE0705DFFF729FAFFF7A4
:1016C000A3FA8046B8F1000F00D003E0681CC5B251
:1016D000BD42F1DB00BFFFF773FA4046BDE8F08181
:1016E00010B504460723012221460948FFF712F8E6
:1016F00001210748FFF76FF800BF02210448FEF7F9
:10170000CDFF0028F9D00248FEF7C4FF10BD00004D
:10171000002401402DE9F04107460C460025002633
:1017200008E03846FFF7DCFF0544052006F0DAF84C
:10173000701CC6B2A642F4DBB5FBF4F080B2BDE883
:10174000F08100BFFEE7000010B500200F490860DF
:101750000F48006820F070400D4908600846006896
:1017600040F04050086000200A49C1F89C01022066
:1017700006F0DEF8012005490860022006F0D8F8DE
:1017800000200449C1F8980110BD00009881214251
:10179000000C01400080214208B50121082004F01E
:1017A000EBFDC020ADF8000010208DF803000320F1
:1017B0008DF8020069460448FFF783FCC021024807
:1017C000FFF75DFD08BD0000000C014010B50020D2
:1017D0000F4908600F48006820F070400D4908600C
:1017E0000846006840F04050086001200A49C1F8EE
:1017F0009C01022006F09CF80120054908600220A7
:1018000006F096F800200449C1F8980110BD0000C8
:1018100098812142000C01400080214270B50546AC
:1018200000241748006820F07040154908600846F9
:10183000006840F000400860002616E000201149D2
:101840000860022006F074F801200F49C1F89801E1
:101850006006040E0B487C38006808B1601CC4B2F6
:10186000012006F065F8701CC6B2082EE6DB15B93B
:10187000FFF7ACFF01E0FFF767FF204670BD0000F7
:10188000000C0140988121420080214270B504463D
:101890001848006820F07040164908600846006843
:1018A00040F04050086000201349086000251EE009
:1018B000E00920B101201049091D086003E0002063
:1018C0000D49091D08606006040E022006F030F87C
:1018D000012009490860022006F02AF80020074983
:1018E000C1F89801022006F023F8681CC5B2082D43
:1018F000DEDB70BD000C0140988121420080214256
:1019000010B50F48006820F070400D490860084687
:10191000006840F04050086001200A4908600A4908
:10192000C1F89801042006F003F80020054908607A
:10193000042005F0FDFF00200349C1F8980110BD07
:10194000000C01409C8121420080214210B50F48CB
:10195000006820F070400D4908600846006840F0BB
:101960004050086000200A4908600A49C1F89C01FB
:10197000042005F0DDFF0120054908600549C1F894
:101980009C01042005F0D4FF10BD0000000C0140B4
:10199000988121420080214210B50024144800683B
:1019A00020F07040124908600846006840F000408E
:1019B000086001200F49086005F0BAFF01200E49B8
:1019C000C1F8980105F0B4FF07E0601CC4B2FA2C1E
:1019D00003DDFFF7BBFF012010BD0648803800681B
:1019E0000028F2D10349091F086000BFF4E7000096
:1019F000000C01409C8121420080214210B5044628
:101A000014B101201949087018480078E8B108217C
:101A10001748FFF729FC20B104211548FFF724FCE3
:101A200098B90A2005F05EFF0020104908700821CF
:101A30000F48FFF719FC08B9022010BD04210C481B
:101A4000FFF712FC78B90320F7E708210848FFF7F1
:101A50000BFC012807D104210548FFF705FC0128EC
:101A600001D1024908700020E7E7000026000020AD
:101A70000018014070B504460026174805884088C4
:101A800045431548808846F60401884216D112481D
:101A90008079012812D100200F4988712A204881BD
:101AA0002B2088810021084603F0EAFF01200A4923
:101AB00088712B2048812A20888103E00021084674
:101AC00003F0DEFF04F02CFA002602E00348048055
:101AD000761CAE42FAD370BD380100200008006CBD
:101AE00010B50446002C66D16C498871F02008803E
:101AF0004FF4A07048800846808849F241318842FE
:101B00000BD06648808846F60401884205D06348B9
:101B1000808845F2103188421AD12C205F49088113
:101B20002A2048812B2088810846808846F60401B7
:101B3000884205D05948808845F21031884206D144
:101B40004FF4A070554908804FF4F0704880A1E030
:101B50005248808845F21051884210D14FF43050DD
:101B60004E4908814FF4285048814FF42C50888109
:101B70004FF4F07008804FF4487048808AE047487E
:101B8000808841F6631188420DD12C204349088199
:101B90002B2048812A2088814FF4F07008804FF470
:101BA0004870488076E022203C4908812020488106
:101BB000212088816EE00120384988714FF4A0709F
:101BC0000880F02048800846808849F241318842E8
:101BD00005D03248808845F21031884207D12C2048
:101BE0002E4908812A2048812B2088813FE02B48FC
:101BF000808846F60401884207D12C2027490881B5
:101C00002B2048812A20888131E02448808845F2B1
:101C10001051884210D14FF43050204908814FF4C0
:101C2000285048814FF42C5088814FF44870088028
:101C30004FF4F07048801AE01848808841F663112C
:101C400088420DD12C20154908812A2048812B205B
:101C500088814FF4487008804FF4F070488006E0A7
:101C600022200E49088121204881202088810B48AC
:101C7000808846F60401884205D00848808845F2ED
:101C80001031884206D14FF4F070044908804FF4B7
:101C9000A0704880002003F07DFD10BD38010020B9
:101CA0002DE9FF4F84B081468A46002003900290C0
:101CB0000698A0EB09050798A0EB0A06CDF804905A
:101CC000CDF800A0002D01DD012705E00DB90027AA
:101CD00002E04FF0FF376D42002E02DD4FF00108A9
:101CE00006E016B94FF0000802E04FF0FF387642E8
:101CF000B54201DD2C4600E034464FF0000B21E0F8
:101D0000009A91B2019A90B200F022F80398284408
:101D100003900298304402900398A04205DD039896
:101D2000001B03900198384401900298A04205DD01
:101D30000298001B02900098404400900BF10100B3
:101D40001FFA80FB601C8345DADD08B0BDE8F08F28
:101D500030B504460D462946204603F091FE04F0B6
:101D6000DFF8024800880249088030BD28000020C2
:101D70000008006C2DE9F04306460F46904600240B
:101D800045460320A0EB48093CE07A1B91B232198A
:101D900090B2FFF7DDFF3A1B91B2721990B2FFF7D4
:101DA000D7FF3A1991B2721990B2FFF7D1FF7A19A1
:101DB00091B2321990B2FFF7CBFF7A1991B2321B70
:101DC00090B2FFF7C5FF3A1991B2721B90B2FFF7BC
:101DD000BFFF7A1B91B2321B90B2FFF7B9FF3A1BDB
:101DE00091B2721B90B2FFF7B3FF641CB9F1000F00
:101DF00003DAA000801D814404E0601B80000A30EB
:101E000081446D1EAC42C0DDBDE8F08330B50346B1
:101E10000C4615465A48808849F24131884205D01F
:101E20005748808845F21031884214D15449488976
:101E300004F070F8181204F067F8D8B204F064F8EF
:101E40004F49888904F066F8201204F05DF8E0B28A
:101E500004F05AF88CE04A48808845F210518842D4
:101E600020D14749488904F055F8181204F04CF87D
:101E700043494989491C88B204F04CF8D8B204F0AF
:101E800043F83F49888904F045F8201204F03CF8F3
:101E90003B498989491C88B204F03CF8E0B204F05F
:101EA00033F865E03648808841F66311884228D1CE
:101EB0003348807920B932480088401EC01A83B266
:101EC0002F49488904F026F8181204F01DF8D8B2FA
:101ED00004F01AF8181204F017F8D8B204F014F845
:101EE0002749888904F016F8201204F00DF8E0B2B2
:101EF00004F00AF8201204F007F8E0B204F004F845
:101F000036E01F48808846F6040188421DD11C48EF
:101F10008079012804D11A480088401EC01A83B273
:101F20001749488903F0F6FF181203F0EDFFD8B205
:101F300003F0EAFF1249888903F0ECFF201203F056
:101F4000E3FFE0B203F0E0FF12E00D4880790128E2
:101F500004D10B480088401EC01A83B20849488942
:101F6000194603F0E7FF06498889214603F0E2FF9E
:101F70000348008903490880881C058030BD0000A3
:101F800038010020FE07006C00B59FB00121080257
:101F900004F0D2F901214FF4B47004F0EDF90120FE
:101FA000ADF8780010208DF87B0003208DF87A00C2
:101FB0001EA9FE48FFF785F84CF23370ADF87800A3
:101FC00018208DF87B0003208DF87A001EA9F848B0
:101FD000FFF777F84FF68070ADF8780018208DF88D
:101FE0007B0003208DF87A001EA9F248FFF769F8FC
:101FF00041F20100ADF8780018208DF87B00032035
:102000008DF87A001EA9EC48FFF75BF801200890D4
:10201000002009900F200A9000200B900C900D904A
:102020000E900190029003200390002004900590F0
:102030000690079006200F9000201090119010201D
:1020400012900020139015901490169017904FF452
:1020500080501890002019904FF480401A90002072
:102060001B9008A81C9001A81D900FA8FEF71AFE4F
:1020700001210620FEF7FCFD322005F033FC002094
:1020800003F052FBCD49888008468088FF280ADB90
:10209000084680884FF6FF71884204D0C748808880
:1020A000B0F5134F7ED1D32003F034FF03F032FBA1
:1020B000C249888003F02EFBC049888003F02AFBC8
:1020C000BE498880084680884FF6FF7101EA0020EB
:1020D000BA49888003F01EFBB84989880843B7498C
:1020E00088800846808849F2413188425AD0BF2012
:1020F00003F010FF03F00EFBB049888003F00AFBE9
:10210000AE49888003F006FBAC49888003F002FBEF
:10211000AA498880084680884FF6FF7101EA0020AE
:10212000A649888003F0F6FAA44989880843A349A0
:1021300088800846808846F6040188427AD0D420F8
:1021400003F0E8FE03F0E6FA9C49888003F0E2FA27
:102150009A49888003F0DEFA98498880084680888A
:102160004FF6FF7101EA00209449888003F0D2FA0B
:10217000924989880843914988800846808845F2B9
:102180001031884256D04FF45A4003F0C3FE03F09A
:10219000C1FA8A4988804FF45B4003F0BBFE03F02C
:1021A000B9FA00E046E085498880084680884FF605
:1021B000FF7101EA0020814988804FF45C4003F000
:1021C000A9FE03F0A7FA7D49898808437B498880E6
:1021D00008468088B0F5004F02D145F21050888043
:1021E0007648808845F21051884223D0A12003F020
:1021F00091FE03F08FFA7149888003F08BFA6F49E2
:102200008880084680884FF6FF7101EA00206B49FC
:10221000888003F07FFA6949898808436749888084
:102220000846808845F26171884203D141F6631007
:10223000624988806148818861A0FDF7F3FF5F48AB
:10224000808849F2413188427ED1CF2003F062FE7E
:10225000002003F059FEC12003F056FE302003F0A9
:1022600053FEED2003F056FE642003F04DFE0320E4
:1022700003F04AFE122003F047FE812003F044FEE3
:10228000E82003F047FE852003F03EFE102003F017
:102290003BFE7A2003F038FECB2003F03BFE3920D2
:1022A00003F032FE2C2003F02FFE002003F02CFE62
:1022B000342003F029FE022003F026FEF72003F06D
:1022C00029FE202003F020FEEA2003F023FE002058
:1022D00003F01AFE002003F017FEC02003F01AFEE0
:1022E0001B2003F011FEC12003F014FE012003F0B7
:1022F0000BFEC52003F00EFE302003F005FE30205B
:1023000003F002FEC72003F005FEB72003F0FCFD3A
:10231000362003F0FFFD482003F0F6FD3A2003F0DD
:10232000F9FD552003F0F0FDB12003F0F3FD00208E
:1023300003F0EAFD1A2003F0E7FDB62003F0EAFD02
:102340000A2003F0E1FD00E0AAE0A22003F0DCFD9A
:10235000F22003F0DFFD002003F0D6FD262003F07D
:10236000D9FD012003F0D0FDE02003F0D3FD0F20C4
:1023700003F0CAFD2A2003F0C7FD282003F0C4FDA6
:10238000082003F0C1FD0E2003F0BEFD082003F07D
:10239000BBFD542003F0B8FDA92003F0B5FD432098
:1023A00003F0B2FD0A2003F0AFFD11E0000C014084
:1023B00000140140001801400020014038010020B5
:1023C000204C43442049443A25780D0A000000007F
:1023D0000F2003F099FD002003F096FD002003F08C
:1023E00093FD002003F090FD002003F08DFDE1201F
:1023F00003F090FD002003F087FD152003F084FD1D
:10240000172003F081FD072003F07EFD112003F06B
:102410007BFD062003F078FD2B2003F075FD562090
:1024200003F072FD3C2003F06FFD052003F06CFD0E
:10243000102003F069FD0F2003F066FD3F2003F03C
:1024400063FD3F2003F060FD0F2003F05DFD2B20B6
:1024500003F060FD002003F057FD002003F054FD61
:10246000012003F051FD3F2003F04EFD2A2003F030
:1024700051FD002003F048FD002003F045FD002041
:1024800003F042FDEF2003F03FFD112003F042FD79
:10249000782005F027FA292003F03CFD03F01DB950
:1024A000FE48808846F6040188427CD1112003F062
:1024B00031FD142005F016FAD02003F02BFD072083
:1024C00003F022FD422003F01FFD1D2003F01CFD40
:1024D000D12003F01FFD002003F016FD1A2003F0A9
:1024E00013FD092003F010FDD22003F013FD01209D
:1024F00003F00AFD222003F007FDC02003F00AFDCF
:10250000102003F001FD3B2003F0FEFC002003F04F
:10251000FBFC022003F0F8FC112003F0F5FCC520C1
:1025200003F0F8FC032003F0EFFCC82003F0F2FCFA
:10253000002003F0E9FC252003F0E6FC212003F055
:10254000E3FC052003F0E0FC002003F0DDFC0A20A2
:1025500003F0DAFC652003F0D7FC252003F0D4FC5F
:10256000772003F0D1FC502003F0CEFC0F2003F0C5
:10257000CBFC002003F0C8FCF82003F0CBFC0120CA
:1025800003F0C2FCFE2003F0C5FC002003F0BCFCFD
:10259000022003F0B9FC202003F0BCFC362003F03D
:1025A000B9FC082000E02CE003F0AEFC3A2003F078
:1025B000B1FC552003F0A8FC2B2003F0ABFC00205D
:1025C00003F0A2FC002003F09FFC012003F09CFC20
:1025D0003F2003F099FC2A2003F09CFC002003F02C
:1025E00093FC002003F090FC012003F08DFCDF2021
:1025F00003F08AFC782005F075F9292003F08AFCA5
:102600004CE7A648808845F21031884240F07C872C
:10261000ED2003F07FFC012003F076FCFE2003F0A8
:1026200073FCEE2003F076FCDE2003F06DFC21202D
:1026300003F06AFCF12003F06DFC012003F064FC60
:10264000DF2003F067FC102003F05EFCC42003F0E1
:1026500061FC8F2003F058FCC62003F05BFC0020D7
:1026600003F052FCE22003F04FFCE22003F04CFCAC
:10267000E22003F049FCBF2003F04CFCAA2003F049
:1026800043FCB02003F046FC0D2003F03DFC00208D
:1026900003F03AFC0D2003F037FC002003F034FC7B
:1026A000112003F031FC002003F02EFC192003F070
:1026B0002BFC002003F028FC212003F025FC002047
:1026C00003F022FC2D2003F01FFC002003F01CFC73
:1026D0003D2003F019FC002003F016FC5D2003F000
:1026E00013FC002003F010FC5D2003F00DFC002023
:1026F00003F00AFCB12003F00DFC802003F004FC81
:10270000002003F001FC8B2003F0FEFB002003F00F
:10271000FBFB962003F0F8FB002003F0F5FBB22052
:1027200003F0F8FB002003F0EFFB002003F0ECFBCC
:10273000022003F0E9FB002003F0E6FB032003F096
:10274000E3FB002003F0E0FBB32003F0E3FB0020F9
:1027500003F0DAFB002003F0D7FB002003F0D4FBEA
:10276000002003F0D1FB002003F0CEFB002003F09B
:10277000CBFB002003F0C8FB002003F0C5FB0020CA
:1027800003F0C2FB002003F0BFFB002003F0BCFB02
:10279000002003F0B9FB002003F0B6FB002003F09B
:1027A000B3FB002003F0B0FB002003F0ADFB0020E2
:1027B00003F0AAFB002003F0A7FB002003F0A4FB1A
:1027C000002003F0A1FB002003F09EFB002003F09B
:1027D0009BFB002003F098FB002003F095FBB42046
:1027E00003F098FB8B2003F08FFB002003F08CFBA1
:1027F000962003F089FB002003F086FBA12003F064
:1028000083FB002003F080FBB52003F083FB022054
:1028100003F07AFB002003F077FB032003F074FB46
:10282000002003F071FB042003F06EFB002003F096
:102830006BFBB62003F06EFB002003F065FB00206D
:1028400003F062FBB72003F065FB002003F05CFBA4
:10285000002003F059FB3F2003F056FB002003F05B
:1028600053FB5E2003F050FB002003F04DFB64207F
:1028700003F04AFB002003F047FB8C2003F044FBED
:10288000002003F041FBAC2003F03EFB002003F0EE
:102890003BFBDC2003F038FB002001E03801002086
:1028A00003F032FB702003F02FFB002003F02CFB21
:1028B000902003F029FB002003F026FBEB2003F01F
:1028C00023FB002003F020FBDC2003F01DFB002095
:1028D00003F01AFBB82003F01DFB002003F014FBEB
:1028E000002003F011FB002003F00EFB002003F09A
:1028F0000BFB002003F008FB002003F005FB002089
:1029000003F002FB002003F0FFFABA2003F002FB01
:10291000242003F0F9FA002003F0F6FA002003F077
:10292000F3FA002003F0F0FAC12003F0F3FA2020BC
:1029300003F0EAFA002003F0E7FA542003F0E4FA87
:10294000002003F0E1FAFF2003F0DEFA002003F09C
:10295000DBFAC22003F0DEFA0A2003F0D5FA0020E9
:1029600003F0D2FA042003F0CFFA002003F0CCFAEF
:10297000C32003F0CFFA3C2003F0C6FA002003F096
:10298000C3FA3A2003F0C0FA002003F0BDFA392060
:1029900003F0BAFA002003F0B7FA372003F0B4FAD4
:1029A000002003F0B1FA3C2003F0AEFA002003F05F
:1029B000ABFA362003F0A8FA002003F0A5FA322083
:1029C00003F0A2FA002003F09FFA2F2003F09CFAF4
:1029D000002003F099FA2C2003F096FA002003F06F
:1029E00093FA292003F090FA002003F08DFA2620B4
:1029F00003F08AFA002003F087FA242003F084FA17
:102A0000002003F081FA242003F07EFA002003F076
:102A10007BFA232003F078FA002003F075FA3C20BB
:102A200003F072FA002003F06FFA362003F06CFA1C
:102A3000002003F069FA322003F066FA002003F068
:102A400063FA2F2003F060FA002003F05DFA2C20D7
:102A500003F05AFA002003F057FA292003F054FA41
:102A6000002003F051FA262003F04EFA002003F074
:102A70004BFA242003F048FA002003F045FA242002
:102A800003F042FA002003F03FFA232003F03CFA5F
:102A9000002003F039FAC42003F03CFA622003F06E
:102AA00033FA002003F030FA052003F02DFA00205D
:102AB00003F02AFA842003F027FA002003F024FA16
:102AC000F02003F021FA002003F01EFA182003F092
:102AD0001BFA002003F018FAA42003F015FA0020D6
:102AE00003F012FA182003F00FFA002003F00CFA9A
:102AF000502003F009FA002003F006FA0C2003F03E
:102B000003FA002003F000FA172003F0FDF900207B
:102B100003F0FAF9952003F0F7F9002003F0F4F937
:102B2000F32003F0F1F9002003F0EEF9E62003F0C2
:102B3000EBF9002003F0E8F9C52003F0EBF93220AF
:102B400003F0E2F9002003F0DFF9442003F0DCF9A0
:102B5000002003F0D9F9652003F0D6F9002003F036
:102B6000D3F9762003F0D0F9002003F0CDF98820C6
:102B700003F0CAF9002003F0C7F9C62003F0CAF930
:102B8000202003F0C1F9002003F0BEF9172003F064
:102B9000BBF9002003F0B8F9012003F0B5F90020DB
:102BA00003F0B2F9C72003F0B5F9002003F0ACF947
:102BB000002003F0A9F9002003F0A6F9002003F09B
:102BC000A3F9C82003F0A6F9002003F09DF9002026
:102BD00003F09AF9002003F097F9002003F094F92C
:102BE000C92003F097F9002003F08EF9002003F0CC
:102BF0008BF9002003F088F9002003F085F900200C
:102C000003F082F9002003F07FF9002003F07CF943
:102C1000002003F079F9002003F076F9002003F09A
:102C200073F9002003F070F9002003F06DF9002023
:102C300003F06AF9002003F067F9002003F064F95B
:102C4000002003F061F9E02003F064F9162003F09E
:102C50005BF9002003F058F91C2003F055F900201F
:102C600003F052F9212003F04FF9002003F04CF952
:102C7000362003F049F9002003F046F9462003F01E
:102C800043F9002003F040F9522003F03DF9002001
:102C900003F03AF9642003F037F9002003F034F927
:102CA0007A2003F031F9002003F02EF98B2003F095
:102CB0002BF9002003F028F9992003F025F90020D2
:102CC00003F022F9A82003F01FF9002003F01CF9FB
:102CD000B92003F019F9002003F016F9C42003F01D
:102CE00013F9002003F010F9CA2003F00DF90020B9
:102CF00003F00AF9D22003F007F9002003F004F9E9
:102D0000D92003F001F9002003F0FEF8E02003F0E1
:102D1000FBF8002003F0F8F8F32003F0F5F80020AA
:102D200003F0F2F8E12003F0F5F8162003F0ECF8D8
:102D3000002003F0E9F81C2003F0E6F8002003F07F
:102D4000E3F8222003F0E0F8002003F0DDF836205D
:102D500003F0DAF8002003F0D7F8452003F0D4F8A8
:102D6000002003F0D1F8522003F0CEF8002003F049
:102D7000CBF8642003F0C8F8002003F0C5F87A20EF
:102D800003F0C2F8002003F0BFF88B2003F0BCF87A
:102D9000002003F0B9F8992003F0B6F8002003F002
:102DA000B3F8A82003F0B0F8002003F0ADF8B92084
:102DB00003F0AAF8002003F0A7F8C42003F0A4F859
:102DC000002003F0A1F8CA2003F09EF8002003F0D1
:102DD0009BF8D22003F098F8002003F095F8D82053
:102DE00003F092F8002003F08FF8E02003F08CF855
:102DF000002003F089F8F32003F086F8002003F0A8
:102E000083F8E22003F086F8052003F07DF8002027
:102E100003F07AF80B2003F077F8002003F074F841
:102E20001B2003F071F8002003F06EF8342003F04B
:102E30006BF8002003F068F8442003F065F80020E8
:102E400003F062F84F2003F05FF8002003F05CF815
:102E5000612003F059F8002003F056F8792003F0C0
:102E600053F8002003F050F8882003F04DF80020BC
:102E700003F04AF8972003F047F8002003F044F8E5
:102E8000A62003F041F8002003F03EF8B72003F03D
:102E90003BF8002003F038F8C22003F035F800209A
:102EA00003F032F8C72003F02FF8002003F02CF8CD
:102EB000D12003F029F8002003F026F8D62003F0F3
:102EC00023F8002003F020F8DD2003F01DF8002097
:102ED00003F01AF8F32003F017F8002003F014F8B9
:102EE000E32003F017F8052003F00EF8002003F0AC
:102EF0000BF80A2003F008F8002003F005F81C2066
:102F000003F002F8002002F0FFFF332002F0FCFF84
:102F1000002002F0F9FF442002F0F6FF002002F04A
:102F2000F3FF502002F0F0FF002002F0EDFF6220DE
:102F300002F0EAFF002002F0E7FF782002F0E4FF51
:102F4000002002F0E1FF882002F0DEFF002002F006
:102F5000DBFF972002F0D8FF002002F0D5FFA6206B
:102F600002F0D2FF002002F0CFFFB72002F0CCFF2A
:102F7000002002F0C9FFC22002F0C6FF002002F0CC
:102F8000C3FFC72002F0C0FF002002F0BDFFD12028
:102F900002F0BAFF002002F0B7FFD52002F0B4FF24
:102FA000002002F0B1FFDD2002F0AEFF002002F0B1
:102FB000ABFFF32002F0A8FF002002F0A5FFE42001
:102FC00002F0A8FF012002F09FFF002002F09CFF0A
:102FD000012002F099FF002002F096FF022002F08B
:102FE00093FF002002F090FF2A2002F08DFF0020C6
:102FF00002F08AFF3C2002F087FF002002F084FFED
:103000004B2002F081FF002002F07EFF5D2002F0E5
:103010007BFF002002F078FF742002F075FF002093
:1030200002F072FF842002F06FFF002002F06CFFBC
:10303000932002F069FF002002F066FFA22002F058
:1030400063FF002002F060FFB32002F05DFF00206C
:1030500002F05AFFBE2002F057FF002002F054FF9A
:10306000C42002F051FF002002F04EFFCD2002F0FC
:103070004BFF002002F048FFD32002F045FF002064
:1030800002F042FFDD2002F03FFF002002F03CFF93
:10309000F32002F039FF002002F036FFE52002F0B5
:1030A00039FF002002F030FF002002F02DFF002049
:1030B00002F02AFF002002F027FF022002F024FF86
:1030C000002002F021FF292002F01EFF002002F064
:1030D0001BFF3C2002F018FF002002F015FF4B20E0
:1030E00002F012FF002002F00FFF5D2002F00CFF43
:1030F000002002F009FF742002F006FF002002F019
:1031000003FF842002F000FF002002F0FDFE932068
:1031100002F0FAFE002002F0F7FEA22002F0F4FE18
:10312000002002F0F1FEB32002F0EEFE002002F0DB
:10313000EBFEBE2002F0E8FE002002F0E5FEC42017
:1031400002F0E2FE002002F0DFFECD2002F0DCFE05
:10315000002002F0D9FED32002F0D6FE002002F0BB
:10316000D3FEDC2002F0D0FE002002F0CDFEF320E2
:1031700002F0CAFE002002F0C7FEE62002F0CAFEFE
:10318000112002F0C1FE002002F0BEFE342002F049
:10319000BBFE002002F0B8FE562002F0B5FE002073
:1031A00002F0B2FE762002F0AFFE002002F0ACFE8C
:1031B000772002F0A9FE002002F0A6FE662002F0B1
:1031C000A3FE002002F0A0FE882002F09DFE002059
:1031D00002F09AFE992002F097FE002002F094FE81
:1031E000BB2002F091FE002002F08EFE992002F03A
:1031F0008BFE002002F088FE662002F085FE002093
:1032000002F082FE552002F07FFE002002F07CFEDC
:10321000552002F079FE002002F076FE452002F0F3
:1032200073FE002002F070FE432002F06DFE0020CD
:1032300002F06AFE442002F067FE002002F064FE05
:10324000E72002F067FE322002F05EFE002002F06E
:103250005BFE552002F058FE002002F055FE76205D
:1032600002F052FE002002F04FFE662002F04CFEFB
:10327000002002F049FE672002F046FE002002F026
:1032800043FE672002F040FE002002F03DFE872052
:1032900002F03AFE002002F037FE992002F034FEE0
:1032A000002002F031FEBB2002F02EFE002002F0D2
:1032B0002BFE992002F028FE002002F025FE772048
:1032C00002F022FE002002F01FFE442002F01CFE4D
:1032D000002002F019FE562002F016FE002002F037
:1032E00013FE232002F010FE002002F00DFE33201A
:1032F00002F00AFE002002F007FE452002F004FE64
:10330000002002F001FEE82002F004FE002002F09E
:10331000FBFD002002F0F8FD992002F0F5FD0020F1
:1033200002F0F2FD872002F0EFFD002002F0ECFD3C
:10333000882002F0E9FD002002F0E6FD772002F08F
:10334000E3FD002002F0E0FD662002F0DDFD00203C
:1033500002F0DAFD882002F0D7FD002002F0D4FD53
:10336000AA2002F0D1FD002002F0CEFDBB2002F029
:10337000CBFD002002F0C8FD992002F0C5FD002021
:1033800002F0C2FD662002F0BFFD002002F0BCFD8D
:10339000552002F0B9FD002002F0B6FD552002F0E4
:1033A000B3FD002002F0B0FD442002F0ADFD00208E
:1033B00002F0AAFD442002F0A7FD002002F0A4FDC7
:1033C000552002F0A1FD002002F09EFDE92002F050
:1033D000A1FDAA2002F098FD002002F095FD00203A
:1033E00002F092FD002002F08FFD002002F092FD1D
:1033F000AA2002F089FDCF2002F08CFD002002F00F
:1034000083FD002002F080FD002002F07DFD002001
:1034100002F07AFD002002F077FD002002F074FD3A
:10342000002002F071FD002002F06EFD002002F08D
:103430006BFD002002F068FD002002F065FD002019
:1034400002F062FD002002F05FFD002002F05CFD52
:10345000002002F059FD002002F056FD002002F08D
:1034600053FDF02002F056FD002002F04DFD5020EB
:1034700002F04AFD002002F047FD002002F044FD6A
:10348000002002F041FDF32002F044FD002002F094
:103490003BFDF92002F03EFD062002F035FD102034
:1034A00002F032FD292002F02FFD002002F02CFD59
:1034B0003A2002F02FFD552002F026FD112002F0E7
:1034C00029FD642004F00EFA292002F023FD3520A6
:1034D00002F020FD002002F017FD512002F01AFD3D
:1034E000FF2002F011FD532002F014FD2C2002F009
:1034F0000BFD552002F00EFD822002F005FD2C2070
:1035000002F008FD02F0E9B8FE48808845F210514B
:1035100088427DD155214FF4704002F00BFDAA2165
:103520004FF2010002F006FD52214FF2020002F0BC
:1035300001FD08214FF2030002F0FCFC01214FF2D3
:10354000040002F0F7FC0D214FF4304002F0F2FCD1
:103550000D214BF2010002F0EDFC0D214BF20200B7
:1035600002F0E8FC34214FF4364002F0E3FC342151
:103570004BF2016002F0DEFC34214BF2026002F0FB
:10358000D9FC0D214FF4314002F0D4FC0D214BF257
:10359000011002F0CFFC0D214BF2021002F0CAFC28
:1035A00034214FF4374002F0C5FC34214BF2017056
:1035B00002F0C0FC34214BF2027002F0BBFC00218F
:1035C0004FF4324002F0B6FC00214BF2012002F031
:1035D000B1FC00214BF2022002F0ACFC24214FF49C
:1035E000384002F0A7FC24214BF6010002F0A2FCB7
:1035F00024214BF6020002F09DFC01214FF43F40D4
:1036000002F098FC0F214FF4334002F093FC00E0ED
:10361000FDE30F214BF2013002F08CFC0F214BF245
:10362000023002F087FC34214FF4394002F082FC72
:1036300034214BF6011002F07DFC34214BF60210D0
:1036400002F078FC08214FF4354002F073FC0821A9
:103650004BF2015002F06EFC08214BF2025002F0D6
:1036600069FC03214FF4424002F064FC24214FF432
:103670003A4002F05FFC24214BF6012002F05AFC94
:1036800024214BF6022002F055FC00214FF43C406F
:1036900002F050FC78214BF6014002F04BFC002177
:1036A0004BF6024002F046FC00214FF43D4002F090
:1036B00041FC78214BF6015002F03CFC00214BF616
:1036C000025002F037FC00214FF43E4002F032FC81
:1036D00064214BF6016002F02DFC00214FF45140B3
:1036E00002F028FC33214DF2011002F023FC0021EE
:1036F0004DF2021002F01EFC34214DF2031002F0D4
:1037000019FC00214DF2041002F014FC3A214DF294
:10371000051002F00FFC00214DF2061002F00AFC29
:103720004A214DF2071002F005FC00214DF208106D
:1037300002F000FC5C214DF2091002F0FBFB0021BD
:103740004DF20A1002F0F6FB81214DF20B1002F04F
:10375000F1FB00214DF20C1002F0ECFBA6214DF222
:103760000D1002F0E7FB00214DF20E1002F0E2FB1B
:10377000E5214DF20F1002F0DDFB01214DF210109A
:1037800002F0D8FB13214DF2111002F0D3FB0121FE
:103790004DF2121002F0CEFB54214DF2131002F044
:1037A000C9FB01214DF2141002F0C4FB82214DF23D
:1037B000151002F0BFFB01214DF2161002F0BAFB0A
:1037C000CA214DF2171002F0B5FB02214DF218107C
:1037D00002F0B0FB00214DF2191002F0ABFB022108
:1037E0004DF21A1002F0A6FB01214DF21B1002F05F
:1037F000A1FB02214DF21C1002F09CFB34214DF282
:103800001D1002F097FB02214DF21E1002F092FBF8
:1038100067214DF21F1002F08DFB02214DF22010A6
:1038200002F088FB84214DF2211002F083FB02217B
:103830004DF2221002F07EFBA4214DF2231002F083
:1038400079FB02214DF2241002F074FBB7214DF2F6
:10385000251002F06FFB02214DF2261002F06AFBE8
:10386000CF214DF2271002F065FB02214DF2281006
:1038700002F060FBDE214DF2291002F05BFB022119
:103880004DF22A1002F056FBF2214DF22B1002F0FD
:1038900051FB02214DF22C1002F04CFBFE214DF2A7
:1038A0002D1002F047FB03214DF22E1002F042FBD7
:1038B00010214DF22F1002F03DFB03214DF230108C
:1038C00002F038FB33214DF2311002F033FB0321BB
:1038D0004DF2321002F02EFB6D214DF2331002F04A
:1038E00029FB00214FF4524002F024FB33214DF21A
:1038F000012002F01FFB00214DF2022002F01AFB12
:10390000342101E0380100204DF2032002F012FBC7
:1039100000214DF2042002F00DFB3A214DF205206A
:1039200002F008FB00214DF2062002F003FB4A21C1
:103930004DF2072002F0FEFA00214DF2082002F0BD
:10394000F9FA5C214DF2092002F0F4FA00214DF25F
:103950000A2002F0EFFA81214DF20B2002F0EAFA80
:1039600000214DF20C2002F0E5FAA6214DF20D20C7
:1039700002F0E0FA00214DF20E2002F0DBFAE52120
:103980004DF20F2002F0D6FA01214DF2102002F084
:10399000D1FA13214DF2112002F0CCFA01214DF29F
:1039A000122002F0C7FA54214DF2132002F0C2FA9D
:1039B00001214DF2142002F0BDFA82214DF21520B2
:1039C00002F0B8FA01214DF2162002F0B3FACA2132
:1039D0004DF2172002F0AEFA02214DF2182002F04B
:1039E000A9FA00214DF2192002F0A4FA02214DF2A9
:1039F0001A2002F09FFA01214DF21B2002F09AFAE0
:103A000002214DF21C2002F095FA34214DF21D20C6
:103A100002F090FA02214DF21E2002F08BFA67218B
:103A20004DF21F2002F086FA02214DF2202002F012
:103A300081FA84214DF2212002F07CFA02214DF21C
:103A4000222002F077FAA4214DF2232002F072FA2C
:103A500002214DF2242002F06DFAB7214DF225200B
:103A600002F068FA02214DF2262002F063FACF211B
:103A70004DF2272002F05EFA02214DF2282002F0DA
:103A800059FADE214DF2292002F054FA02214DF2BA
:103A90002A2002F04FFAF2214DF22B2002F04AFACE
:103AA00002214DF22C2002F045FAFE214DF22D208C
:103AB00002F040FA03214DF22E2002F03BFA1021D1
:103AC0004DF22F2002F036FA03214DF2302002F0A1
:103AD00031FA33214DF2312002F02CFA03214DF25C
:103AE000322002F027FA6D214DF2332002F022FA43
:103AF00000214FF4534002F01DFA33214DF2013002
:103B000002F018FA00214DF2023002F013FA3421CB
:103B10004DF2033002F00EFA00214DF2043002F0B3
:103B200009FA3A214DF2053002F004FA00214DF273
:103B3000063002F0FFF94A214DF2073002F0FAF99F
:103B400000214DF2083002F0F5F95C214DF2093008
:103B500002F0F0F900214DF20A3002F0EBF9812178
:103B60004DF20B3002F0E6F900214DF20C3002F07C
:103B7000E1F9A6214DF20D3002F0DCF900214DF201
:103B80000E3002F0D7F9E5214DF20F3002F0D2F9F4
:103B900001214DF2103002F0CDF913214DF2113018
:103BA00002F0C8F901214DF2123002F0C3F954219C
:103BB0004DF2133002F0BEF901214DF2143002F043
:103BC000B9F982214DF2153002F0B4F901214DF21C
:103BD000163002F0AFF9CA214DF2173002F0AAF9FF
:103BE00002214DF2183002F0A5F900214DF21930F2
:103BF00002F0A0F902214DF21A3002F09BF90121E6
:103C00004DF21B3002F096F902214DF21C3002F009
:103C100091F934214DF21D3002F08CF902214DF260
:103C20001E3002F087F967214DF21F3002F082F951
:103C300002214DF2203002F07DF984214DF2213035
:103C400002F078F902214DF2223002F073F9A4213A
:103C50004DF2233002F06EF902214DF2243002F0D1
:103C600069F9B7214DF2253002F064F902214DF2D5
:103C7000263002F05FF9CF214DF2273002F05AF9D9
:103C800002214DF2283002F055F9DE214DF22930A3
:103C900002F050F902214DF22A3002F04BF9F221E4
:103CA0004DF22B3002F046F902214DF22C3002F099
:103CB00041F9FE214DF22D3002F03CF903214DF285
:103CC0002E3002F037F910214DF22F3002F032F988
:103CD00003214DF2303002F02DF933214DF2313015
:103CE00002F028F903214DF2323002F023F96D2160
:103CF0004DF2333002F01EF900214FF4544002F02F
:103D000019F933214DF2014002F014F900214DF26E
:103D1000024002F00FF934214DF2034002F00AF99B
:103D200000214DF2044002F005F93A214DF2054020
:103D300002F000F900214DF2064002F0FBF84A21A2
:103D40004DF2074002F0F6F800214DF2084002F073
:103D5000F1F85C214DF2094002F0ECF800214DF23F
:103D60000A4002F0E7F881214DF20B4002F0E2F840
:103D700000214DF20C4002F0DDF8A6214DF20D407D
:103D800002F0D8F800214DF20E4002F0D3F8E52100
:103D90004DF20F4002F0CEF801214DF2104002F03A
:103DA000C9F813214DF2114002F0C4F801214DF27F
:103DB000124002F0BFF854214DF2134002F0BAF85D
:103DC00001214DF2144002F0B5F882214DF2154068
:103DD00002F0B0F801214DF2164002F0ABF8CA2112
:103DE0004DF2174002F0A6F802214DF2184002F001
:103DF000A1F800214DF2194002F09CF802214DF289
:103E00001A4002F097F801214DF21B4000E006E352
:103E100002F090F802214DF21C4002F08BF83421A0
:103E20004DF21D4002F086F802214DF21E4002F0D4
:103E300081F867214DF21F4002F07CF802214DF21B
:103E4000204002F077F884214DF2214002F072F810
:103E500002214DF2224002F06DF8A4214DF22340E0
:103E600002F068F802214DF2244002F063F8B72115
:103E70004DF2254002F05EF802214DF2264002F09C
:103E800059F8CF214DF2274002F054F802214DF2AB
:103E9000284002F04FF8DE214DF2294002F04AF8A6
:103EA00002214DF22A4002F045F8F2214DF22B405A
:103EB00002F040F802214DF22C4002F03BF8FE21C6
:103EC0004DF22D4002F036F803214DF22E4002F063
:103ED00031F810214DF22F4002F02CF803214DF261
:103EE000304002F027F833214DF2314002F022F841
:103EF00003214DF2324002F01DF86D214DF23340A6
:103F000002F018F800214FF4554002F013F8332165
:103F10004DF2015002F00EF800214DF2025002F075
:103F200009F834214DF2035002F004F800214DF25B
:103F3000045001F0FFFF3A214DF2055001F0FAFF65
:103F400000214DF2065001F0F5FF4A214DF20750D5
:103F500001F0F0FF00214DF2085001F0EBFF5C2171
:103F60004DF2095001F0E6FF00214DF20A5001F038
:103F7000E1FF81214DF20B5001F0DCFF00214DF2F9
:103F80000C5001F0D7FFA6214DF20D5001F0D2FFE9
:103F900000214DF20E5001F0CDFFE5214DF20F5002
:103FA00001F0C8FF01214DF2105001F0C3FF1321B1
:103FB0004DF2115001F0BEFF01214DF2125001F0FF
:103FC000B9FF54214DF2135001F0B4FF01214DF21D
:103FD000145001F0AFFF82214DF2155001F0AAFFFD
:103FE00001214DF2165001F0A5FFCA214DF21750E4
:103FF00001F0A0FF02214DF2185001F09BFF0021BB
:104000004DF2195001F096FF02214DF21A5001F0C5
:1040100091FF01214DF21B5001F08CFF02214DF266
:104020001C5001F087FF34214DF21D5001F082FF3A
:1040300002214DF21E5001F07DFF67214DF21F500D
:1040400001F078FF02214DF2205001F073FF84212E
:104050004DF2215001F06EFF02214DF2225001F08D
:1040600069FFA4214DF2235001F064FF02214DF2BB
:10407000245001F05FFFB7214DF2255001F05AFFA7
:1040800002214DF2265001F055FFCF214DF227506D
:1040900001F050FF02214DF2285001F04BFFDE21CC
:1040A0004DF2295001F046FF02214DF22A5001F055
:1040B00041FFF2214DF22B5001F03CFF02214DF265
:1040C0002C5001F037FFFE214DF22D5001F032FF50
:1040D00003214DF22E5001F02DFF10214DF22F50F3
:1040E00001F028FF03214DF2305001F023FF33216E
:1040F0004DF2315001F01EFF03214DF2325001F01C
:1041000019FF6D214DF2335001F014FF00214FF4DF
:10411000564001F00FFF33214DF2016001F00AFF1C
:1041200000214DF2026001F005FF34214DF20360E1
:1041300001F000FF00214DF2046001F0FBFE3A2186
:104140004DF2056001F0F6FE00214DF2066001F02F
:10415000F1FE4A214DF2076001F0ECFE00214DF224
:10416000086001F0E7FE5C214DF2096001F0E2FE1B
:1041700000214DF20A6001F0DDFE81214DF20B605D
:1041800001F0D8FE00214DF20C6001F0D3FEA62113
:104190004DF20D6001F0CEFE00214DF20E6001F0F7
:1041A000C9FEE5214DF20F6001F0C4FE01214DF280
:1041B000106001F0BFFE13214DF2116001F0BAFE54
:1041C00001214DF2126001F0B5FE54214DF2136051
:1041D00001F0B0FE01214DF2146001F0ABFE82212E
:1041E0004DF2156001F0A6FE01214DF2166001F0BE
:1041F000A1FECA214DF2176001F09CFE02214DF292
:10420000186001F097FE00214DF2196001F092FE56
:1042100002214DF21A6001F08DFE01214DF21B606A
:1042200001F088FE02214DF21C6001F083FE342172
:104230004DF21D6001F07EFE02214DF21E6001F084
:1042400079FE67214DF21F6001F074FE02214DF2EC
:10425000206001F06FFE84214DF2216001F06AFEC2
:1042600002214DF2226001F065FEA4214DF223608F
:1042700001F060FE02214DF2246001F05BFEB721E7
:104280004DF2256001F056FE02214DF2266001F04C
:1042900051FECF214DF2276001F04CFE02214DF27C
:1042A000286001F047FEDE214DF2296001F042FE58
:1042B00002214DF22A6001F03DFEF2214DF22B6009
:1042C00001F038FE02214DF22C6001F033FEFE2198
:1042D0004DF22D6001F02EFE03214DF22E6001F013
:1042E00029FE10214DF22F6001F024FE03214DF232
:1042F000306001F01FFE33214DF2316001F01AFEF3
:1043000003214DF2326001F015FE6D214DF2336054
:1043100001F010FE55214FF4704001F00BFEAA2170
:104320004FF2010001F006FE52214FF2020001F0AF
:1043300001FE08214FF2030001F0FCFD00214FF2C5
:10434000040001F0F7FDCC214FF4314001F0F2FD03
:1043500000214BF2011001F0EDFD05214FF4364034
:1043600001F0E8FD70214FF4374001F0E3FD7021CA
:104370004BF2017001F0DEFD01214FF4384001F0F5
:10438000D9FD03214BF6010001F0D4FD03214BF6CA
:10439000020001F0CFFD03214BF6030001F0CAFD3E
:1043A00002214FF43C4001F0C5FD00214BF60140D5
:1043B00001F0C0FD00214BF6024001F0BBFDD02111
:1043C0004FF4494001F0B6FD02214CF6011001F016
:1043D000B1FD50214CF6021001F0ACFD50214CF61D
:1043E000031001F0A7FD50214CF6041001F0A2FDCE
:1043F00000214FF4545001F09DFD55214FF46850B9
:1044000001F098FD4FF4885001F084FD782003F00E
:104410008FFA4FF4245001F07DFD01F05EB9FE48A3
:10442000808849F2253188427ED147F6F001E520A7
:1044300001F080FD4FF48071012001F07BFD4FF40D
:10444000E061022001F076FD41F23001032001F02D
:1044500071FD0021042001F06DFD40F202210820D1
:1044600001F068FD0021092001F064FD00210A200F
:1044700001F060FD00210C2001F05CFD00210D2009
:1044800001F058FD00210F2001F054FD0021102003
:1044900001F050FD0721112001F04CFD00211220F8
:1044A00001F048FD0021132001F044FD0021072008
:1044B00001F040FD41F29061102001F03BFD40F21F
:1044C0002721112001F036FD9D21122001F032FD3F
:1044D0004FF4C851132001F02DFD2521292001F0B2
:1044E00029FD0D212B2001F025FD0721302001F0B1
:1044F00021FD40F20331312001F01CFD0321322067
:1045000001F018FD40F20621352001F013FD0821CD
:10451000362001F00FFD40F20641372001F00AFD80
:104520004FF44171382000E057E001F003FD07210E
:10453000392001F0FFFC40F202613C2001F0FAFC5E
:1045400008213D2001F0F6FC0021502001F0F2FC92
:10455000EF21512001F0EEFC0021522001F0EAFC95
:1045600040F23F11532001F0E5FC4FF42741602059
:1045700001F0E0FC0121612001F0DCFC00216A2057
:1045800001F0D8FC0021802001F0D4FC0021812022
:1045900001F0D0FC0021822001F0CCFC002183201E
:1045A00001F0C8FC0021842001F0C4FC002185201A
:1045B00001F0C0FC1021902001F0BCFC4FF4C06160
:1045C000922001F0B7FC40F23311072001F0B2FC59
:1045D0002221002001F0AEFC1FE78F48808849F2BD
:1045E000283188427ED141F28F01EC2001F0A2FCFB
:1045F00041F23421EF2001F09DFC4FF48071012045
:1046000001F098FC4FF4E061022001F093FC41F2CC
:104610003001032001F08EFC0021042001F08AFC0F
:1046200040F20221082001F085FC0021092001F060
:1046300081FC00210A2001F07DFC01210C2001F009
:1046400079FC00210D2001F075FC00210F2001F004
:1046500071FC0021102001F06DFC0721112001F0F8
:1046600069FC0021122001F065FC0021132001F0FB
:1046700061FC0121072001F05DFC322003F032F9DA
:1046800041F29041102001F055FC40F22721112009
:1046900001F050FC322003F025F98A21122001F0AC
:1046A00049FC322003F01EF94FF4D051132001F0E1
:1046B00041FC0621292001F03DFC0D212B2001F0B9
:1046C00039FC322003F00EF90021202001F032FCE9
:1046D0000021212001F02EFC322003F003F90021FB
:1046E000302000E074E001F025FC40F2046131204C
:1046F00001F020FC40F20531322001F01BFC0021CA
:10470000352001F017FC40F60941362001F012FC7B
:104710004FF40171372001F00DFC40F201313820D7
:1047200001F008FC40F20771392001F003FC002180
:104730003C2001F0FFFB40F60A213D2001F0FAFB8E
:10474000322003F0CFF80021502001F0F3FBEF21DD
:10475000512001F0EFFB0021522001F0EBFB40F271
:104760003F11532001F0E6FB4FF42741602001F098
:10477000E1FB0121612001F0DDFB00216A2001F055
:10478000D9FB0021802001F0D5FB0021812001F020
:10479000D1FB0021822001F0CDFB0021832001F01C
:1047A000C9FB0021842001F0C5FB0021852001F018
:1047B000C1FB1021902001F0BDFB4FF4C06192209D
:1047C00001F0B8FB40F23311072001F0B3FB24E6FF
:1047D0001148808849F2203188427DD10021084665
:1047E00001F0A8FB4FF48071012001F0A3FB4FF40E
:1047F000E061022001F09EFB41F23001032001F054
:1048000099FB0021042001F095FB40F202210820D1
:1048100001F090FB002101E038010020092001F0A7
:1048200089FB00210A2001F085FB01210C2001F009
:1048300081FB00210D2001F07DFB00210F2001F004
:1048400079FB322003F04EF840F20111072001F00D
:1048500071FB322003F046F84FF48651102001F02E
:1048600069FB0721112001F065FB4FF488711220CC
:1048700001F060FB4FF43061132001F05BFB00217D
:10488000292001F057FB44F210012B2001F052FBCC
:104890000021502001F04EFBEF21512001F04AFB96
:1048A0000021522001F046FB40F23F11532001F05D
:1048B00041FB4FF41C51602001F03CFB01216120C1
:1048C00001F038FB00216A2001F034FB0021802038
:1048D00001F030FB002100E031E0812001F02AFBF3
:1048E0000021822001F026FB0021832001F022FB21
:1048F0000021842001F01EFB0021852001F01AFB1D
:104900001021902001F016FB0021922001F012FBF3
:104910000121932001F00EFB4FF48871952001F0E6
:1049200009FB0021972001F005FB0021982001F0F0
:1049300001FB40F27311072001F0FCFA6DE5FE481F
:10494000808849F2313188427DD141F21401E7205B
:1049500001F0F0FA4FF48071012001F0EBFA4FF40E
:104960000071022001F0E6FA41F23801032001F063
:10497000E1FA40F20221082001F0DCFA00210920CE
:1049800001F0D8FA00210A2001F0D4FA00210C200D
:1049900001F0D0FA00210D2001F0CCFA00210F2007
:1049A00001F0C8FA0021102001F0C4FA07211120FB
:1049B00001F0C0FA0021122001F0BCFA00211320FE
:1049C00001F0B8FAC82002F08DFF41F2906110208A
:1049D00001F0B0FA40F22721112001F0ABFA3220A9
:1049E00002F080FF0C21122001F0A4FA322002F024
:1049F00079FF4FF40061132001F09CFA1121292066
:104A000001F098FA0B212B2001F094FA322002F0E9
:104A100069FF0021202001F08DFA40F23F11212092
:104A200001F088FA0021302001F084FA4FF48371FC
:104A3000312001F07FFA0021322001F07BFA4FF49F
:104A40000171352000E064E001F074FA41F20A617E
:104A5000362001F06FFA40F20771372001F06AFA50
:104A60004FF48371382001F065FA40F20771392064
:104A700001F060FA40F202413C2001F05BFA40F69E
:104A80000F413D2001F056FA0021502001F052FA6A
:104A9000EF21512001F04EFA0021522001F04AFA94
:104AA00040F23F11532001F045FA4FF41C516020B1
:104AB00001F040FA0121612001F03CFA00216A2056
:104AC00001F038FA0021802001F034FA0021812021
:104AD00001F030FA0021822001F02CFA002183201D
:104AE00001F028FA0021842001F024FA0021852019
:104AF00001F020FA1021902001F01CFA4FF4C0615F
:104B0000922001F017FA40F23311072001F012FA57
:104B100083E48948808845F2084188427ED14FF479
:104B20008071012001F006FA4FF4E061022001F0EB
:104B300001FA41F23001032001F0FCF900210420C8
:104B400001F0F8F940F20721082001F0F3F9002103
:104B5000092001F0EFF900210A2001F0EBF9002112
:104B60000C2001F0E7F900210D2001F0E3F900210C
:104B70000F2001F0DFF9142002F0B4FE41F2B06121
:104B8000102001F0D7F90121112001F0D3F9012102
:104B9000172001F0CFF94FF49C71122001F0CAF9EF
:104BA0004FF40061132001F0C5F90921292001F01B
:104BB000C1F909212A2001F0BDF90021A42001F04A
:104BC000B9F90021502001F0B5F9EF21512001F091
:104BD000B1F90021522001F0ADF940F23F1153200C
:104BE00001F0A8F94FF41C51602001F0A3F9012154
:104BF000612001F09FF900216A2001F09BF900215A
:104C0000802001F097F90021812001F093F9002123
:104C1000822001F08FF90021832000E023E001F0E1
:104C200089F90021842001F085F90021852001F017
:104C300081F91321902001F07DF90021922001F0EB
:104C400079F90321932001F075F94FF488719520CB
:104C500001F070F940F27311072001F06BF9322076
:104C600002F040FEB8E43448808841F205518842A1
:104C70007ED10021072001F05DF9322002F032FEE2
:104C80004FF48E71122001F055F90121A42001F09A
:104C900051F90F21082001F04DF908210A2001F0F7
:104CA00049F908210D2001F045F940F20771302043
:104CB00001F040F90721312001F03CF940F2036195
:104CC000322001F037F94FF4E061332001F032F97E
:104CD00040F20221342001F02DF90221352001F0AB
:104CE00029F941F60F71362001F024F940F20771DD
:104CF000372001F01FF90021382001F01BF90021B5
:104D0000392001F017F940F207713A2001F012F949
:104D100000213B2001F00EF907213C2001F00AF9A7
:104D200000213D2001F006F9322002F0DBFD0121D7
:104D3000072001F0FFF801E03801002001211720D1
:104D400001F0F8F8322002F0CDFD4FF4BD511020F3
:104D500001F0F0F840F21721112001F0EBF84FF4C8
:104D60008F71122001F0E6F84FF47061132000E01B
:104D700097E001F0DFF800212A2001F0DBF80A219A
:104D8000292001F0D7F84FF49F71122001F0D2F8DA
:104D90000021502001F0CEF8EF21512001F0CAF897
:104DA0000021522001F0C6F840F23F11532001F0DB
:104DB000C1F84FF41C51602001F0BCF801216120C2
:104DC00001F0B8F800216A2001F0B4F80021802039
:104DD00001F0B0F80021812001F0ACF80021822020
:104DE00001F0A8F80021832001F0A4F8002184201C
:104DF00001F0A0F80021852001F09CF813219020FB
:104E000001F098F84FF44071922001F093F80521D9
:104E1000932001F08FF80021952001F08BF80021FC
:104E2000972001F087F80021982001F083F84FF4D3
:104E30008071012001F07EF84FF4E061022001F062
:104E400079F841F23801032001F074F800210420C0
:104E500001F070F800210C2001F06CF800210F2007
:104E600001F068F80021202001F064F800212120E1
:104E700001F060F82121072001F05CF8142002F015
:104E800031FD6121072001F055F8142002F02AFDC0
:104E900040F27311072001F04DF8142002F022FDBA
:104EA00095E4FE4880884BF2055188427ED100216E
:104EB000084601F03FF80021084601F03BF80021C8
:104EC000084601F037F80021084601F033F80121C7
:104ED000A42001F02FF8142002F004FD4FF41C511F
:104EE000602001F027F840F20221082001F022F8AA
:104EF0004FF40571302001F01DF843F21571312097
:104F000001F018F840F20461322001F013F840F685
:104F10001661332001F00EF842F21121342001F025
:104F200009F84FF4A851352001F004F848F2075170
:104F3000362000F0FFFF41F20741372000F0FAFF72
:104F400041F20341382000F0F5FF2021392000F024
:104F5000F1FF1A21902000F0EDFF0021102000F059
:104F6000E9FF0721112000F0E5FF0021122000F0E9
:104F7000E1FF0021132000F0DDFF142002F0B2FC5D
:104F80004FF4E661102000F0D5FF40F237111120F8
:104F900000F0D0FF142002F0A5FC4FF4DC711220C9
:104FA00000F0C8FF142002F09DFC00E083E04FF405
:104FB0007061132000F0BEFF80212A2000F0BAFFAC
:104FC0004821292000F0B6FF142002F08BFC4FF49A
:104FD0008071012000F0AEFF4FF4E061022000F08C
:104FE000A9FF41F23801032000F0A4FF40F20221A2
:104FF000082000F09FFF00210A2000F09BFF002105
:105000000C2000F097FF00210D2000F093FF3021CD
:105010000E2000F08FFF0021502000F08BFFEF21C9
:10502000512000F087FF0021522000F083FF40F262
:105030003F11532000F07EFF4FF41C51602000F020
:1050400079FF0121612000F075FF00216A2000F046
:1050500071FF1121902000F06DFF4FF4C06192208C
:1050600000F068FF40F20241932000F063FF02214C
:10507000942000F05FFF142002F034FC012107208F
:1050800000F058FF142002F02DFC6121072000F0F1
:1050900051FF40F27311072000F04CFF0021202047
:1050A00000F048FF0021212000F044FF22210020D1
:1050B00000F040FF11E3794880884CF205518842A6
:1050C0007ED10021084600F035FF0021084600F09F
:1050D00031FF142002F006FC0021084600F02AFFF0
:1050E0000021084600F026FF0021084600F022FFBC
:1050F0000021084600F01EFF0121A42000F01AFF45
:10510000142002F0EFFB4FF41C51602000F012FF5E
:1051100040F60601082000F00DFF40F20371302038
:1051200000F008FF0121312000F004FF04213220AB
:1051300000F000FF4FF48171332000F0FBFE4FF4CC
:105140004071342000F0F6FE40F20311352000F0EB
:10515000F1FE1F21362000F0EDFE40F203713720F2
:1051600000F0E8FE0121382000F0E4FE042139209F
:1051700000F0E0FE1521902000F0DCFE4FF482618B
:10518000102000F0D7FE40F24721112000F0D2FE9F
:105190004FF4DE71122000F0CDFE4FF46061132059
:1051A00000F0C8FE782002F09DFB4FF480710120D2
:1051B00000F0C0FE4FF40071022000F0BBFE00E0E2
:1051C00050E041F23001032000F0B4FE08210A2033
:1051D00000F0B0FE00210C2000F0ACFE20210E20DB
:1051E00000F0A8FE00210F2000F0A4FE00212020E6
:1051F00000F0A0FE0021212000F09CFE3D212A208D
:1052000000F098FE142002F06DFB2D21292000F003
:1052100091FE0021502000F08DFE4DF2EF01512053
:1052200000F088FE0021522000F084FE40F23F1181
:10523000532000F07FFE0021612000F07BFE002162
:105240006A2000F077FE4FF44071922000F072FE69
:105250000521932000F06EFE4FF48071072000F0CE
:1052600069FE3AE20D48808844F2315188427CD18F
:105270000121002000F05EFE0A2002F033FB41F223
:105280002861102000F056FE0E21122000F052FE80
:1052900040F63921132000F04DFE01E038010020D6
:1052A0000A2002F01FFB4021112000F043FE502194
:1052B000152000F03FFE0A2002F014FB1E211220F0
:1052C00000F038FE0A2002F00DFB4FF4B15110201F
:1052D00000F030FE42F63921132000F02BFE0A20A8
:1052E00002F000FB4FF48071012000F023FE4FF428
:1052F0004071022000F01EFE41F23801032000F050
:1053000019FE40F20221082000F014FE08210A20B4
:1053100000F010FE0021302000F00CFE40F20241AF
:10532000312000F007FE4FF48371322000F002FEBE
:1053300040F20351332000F0FDFD4FF48271342020
:1053400000F0F8FD40F20131352000F0F3FD40F2AD
:105350000771362000F0EEFD40F20531372000F0F5
:10536000E9FD4FF40271382000E040E000F0E2FD7A
:1053700040F60B71392000F0DDFD0221412000F0E4
:10538000D9FD4FF41C51602000F0D4FD01216120B3
:1053900000F0D0FD4FF40471902000F0CBFD4FF4ED
:1053A0008571922000F0C6FD0421932000F0C2FD1B
:1053B0004FF48071A02000F0BDFD0121072000F016
:1053C000B9FD2121072000F0B5FD2321072000F0C1
:1053D000B1FD3321072000F0ADFD40F2331107206D
:1053E00000F0A8FD0021A02000F0A4FD75E1C14857
:1053F000808844F2355188427ED13021152000F05A
:1054000099FD10219A2000F095FD2021112000F037
:1054100091FD43F22841102000F08CFD0221122062
:1054200000F088FD41F23801132000F083FD2820B0
:1054300002F058FA1221084600F07CFD282002F004
:1054400051FA43F22041102000F074FD43F238017C
:10545000132000F06FFD462002F044FA00213020B6
:1054600000F068FD40F20241312000F063FD40F29F
:105470000731322000F05EFD4FF44171332000F01F
:1054800059FD0421342000F055FD40F20141352042
:1054900000F050FD40F20771362000F04BFD40F265
:1054A0000531372000F046FD4FF4C261382000F08E
:1054B00041FD4FF4C261392000F03CFD4FF4807192
:1054C000012000F037FD4FF44071022000F032FD62
:1054D00041F23001032000F02DFD40F608010820C4
:1054E00000F028FD08210A2000F024FD4FF41C5193
:1054F000602000F01FFD00E031E00121612000F09C
:1055000019FD4FF49F71902000F014FD4FF480714D
:10551000922000F00FFD4FF48071932000F00AFDFF
:105520004FF44051A02000F005FD1021A32000F011
:1055300001FD0121072000F0FDFC2121072000F0E2
:10554000F9FC2321072000F0F5FC3321072000F0AF
:10555000F1FC40F23311072000F0ECFCBDE065489F
:10556000808841F663118842F8D1E22000F0D2FC35
:105570001D2000F0C9FC022000F0C6FC042000F051
:10558000C3FC642002F0D4F9E02000F0C3FC012049
:1055900000F0BAFC0A2002F0A5F9E02000F0BAFC05
:1055A000032000F0B1FC0C2002F09CF9012000F077
:1055B000B1FC0A2002F096F9E62000F0ABFC2F20A7
:1055C00000F0A2FCFF2000F09FFCFF2000F09CFCFC
:1055D000B02000F09FFC202000F096FC002000F09E
:1055E00093FC032000F090FC40F21F3000F08CFC94
:1055F000012000F089FC40F2DF1000F085FC002063
:1056000000F082FCB42000F085FC042000F07CFC5B
:1056100040F21F4000F078FC002000F075FC2E20C6
:1056200000F072FC002000F06FFC002000F06CFC29
:10563000002000F069FC002000F066FCB62000F0BD
:1056400069FC022000F060FC4FF4037000F05CFC89
:10565000002000F059FC172000F056FC152000F047
:1056600053FC002000F050FC002000F04DFCF02026
:1056700000F050FC032000F047FC292000F04AFC19
:10568000D02000F047FC002000F03EFCBE2000F0DF
:1056900041FC052000F038FCFE2000F035FC012024
:1056A00000F032FC002000F02FFC002000F02CFC69
:1056B000002000F029FCB82000F02CFC032000F0B2
:1056C00023FC012000F020FCBA2000F023FC012084
:1056D00000F01AFC642000F033F80020FCF700FA18
:1056E0000120054908604FF6FF70FCF7C3F91FB0B1
:1056F00000BD0000380100208081214210B5024623
:10570000012000E050430B1EA1F10104E1B2F9D1E8
:1057100010BD000008B5034800880090BDF80000E7
:1057200008BD00000008006C10B50446204600F0DB
:10573000F1FB052002F0FCF8FFF7ECFF10BD0000C4
:105740002DE9F0470446BE2000F0E4FB052000F000
:10575000DBFB204603F006F807464FF066320C4BA1
:1057600003F050F8054602F0B9FF1FFA80F94846E9
:1057700000F0CAFB012000F0C7FBFF2000F0C4FBD3
:10578000002000F0C1FB002000F0BEFBBDE8F08768
:105790006666044070B5044600230026B748807949
:1057A00001280BD1B548808846F60401884205D00F
:1057B000B248808841F66311884208D1AF488079A9
:1057C000F0B9AE48808841F66311884218D1082CA0
:1057D00015D2DFE804F00406080A0C0E10120624A5
:1057E0000DE007240BE0042409E0052407E0012470
:1057F00005E0002403E0032401E0022400BF00BF11
:105800009E48808849F24131884217D09B48808861
:1058100046F60401884211D09848808845F210313C
:1058200088420BD09548808845F21051884205D0B7
:105830009248808841F6631188427DD1082C1CD2A1
:10584000DFE804F00406090C0F12151800BF14E07D
:1058500043F0800311E043F040030EE043F0C00347
:105860000BE043F0200308E043F0600305E043F061
:10587000A00302E043F0E00300BF00BF7F48808840
:1058800045F21051884202D14FF4585600E03626B6
:105890007A48808845F2103188420DD07748808858
:1058A00045F21051884207D07448808841F6631150
:1058B000884201D043F008037048808846F604010E
:1058C000884201D143F002031946304600F032FB12
:1058D0006A48808841F6631188421DD003F0200099
:1058E00068B16648008865494988884214DA634887
:1058F0000588408861490880084645800CE05F487B
:1059000000885E494988884206DD5C4805884088F1
:105910005A490880084645805848808845F2105109
:10592000884254D15549488900F0F4FA002000F02B
:10593000EBFA5249498900E078E0491C88B200F04E
:10594000E9FA002000F0E0FA4C494989891C88B244
:1059500000F0E0FA49490988491EC1F30F2000F020
:10596000D3FA46494989C91C88B200F0D3FA4349A1
:105970000978491EC8B200F0C7FA4049888900F08A
:10598000C9FA002000F0C0FA3C498989491C88B254
:1059900000F0C0FA002000F0B7FA38498989891C64
:1059A00088B200F0B7FA35494988491EC1F30F2083
:1059B00000F0AAFA31498989C91C88B200F0AAFA14
:1059C0002E498978491EC8B200F09EFA55E02B494D
:1059D000488900F09FFA002000F096FA002000F0BD
:1059E00093FA26490988491EC1F30F2000F08CFA6A
:1059F00022490978491EC8B200F086FA1F498889F1
:105A000000F088FA002000F07FFA002000F07CFA15
:105A10001A494988491EC1F30F2000F075FA174949
:105A20008978491EC8B200F06FFA26E0082C1CD213
:105A3000DFE804F004070A0D0F12151843F03003D5
:105A400013E043F0100310E043F020030DE000BF2B
:105A50000BE043F0380308E043F0280305E043F08F
:105A6000180302E043F0080300BF00BF032643F41D
:105A700080531946304600F05DFA70BD38010020B1
:105A800010B503460C466748808849F24131884288
:105A900005D06448808845F21031884214D16149AC
:105AA000488900F037FA181200F02EFAD8B200F048
:105AB0002BFA5C49888900F02DFA201200F024FAB4
:105AC000E0B200F021FAABE05648808846F60401C7
:105AD00088421DD153488079012804D1514800885B
